{
  "contractName": "EnergyMetering",
  "abi": [
    {
      "inputs": [
        {
          "internalType": "address",
          "name": "_user",
          "type": "address"
        },
        {
          "internalType": "address",
          "name": "_energySupplier",
          "type": "address"
        },
        {
          "internalType": "address",
          "name": "_validator",
          "type": "address"
        }
      ],
      "stateMutability": "nonpayable",
      "type": "constructor"
    },
    {
      "inputs": [],
      "name": "energySupplier",
      "outputs": [
        {
          "internalType": "address",
          "name": "",
          "type": "address"
        }
      ],
      "stateMutability": "view",
      "type": "function"
    },
    {
      "inputs": [],
      "name": "meterReading",
      "outputs": [
        {
          "internalType": "uint256",
          "name": "",
          "type": "uint256"
        }
      ],
      "stateMutability": "view",
      "type": "function"
    },
    {
      "inputs": [],
      "name": "supplierApproved",
      "outputs": [
        {
          "internalType": "bool",
          "name": "",
          "type": "bool"
        }
      ],
      "stateMutability": "view",
      "type": "function"
    },
    {
      "inputs": [],
      "name": "user",
      "outputs": [
        {
          "internalType": "address",
          "name": "",
          "type": "address"
        }
      ],
      "stateMutability": "view",
      "type": "function"
    },
    {
      "inputs": [],
      "name": "userApproved",
      "outputs": [
        {
          "internalType": "bool",
          "name": "",
          "type": "bool"
        }
      ],
      "stateMutability": "view",
      "type": "function"
    },
    {
      "inputs": [],
      "name": "validator",
      "outputs": [
        {
          "internalType": "address",
          "name": "",
          "type": "address"
        }
      ],
      "stateMutability": "view",
      "type": "function"
    },
    {
      "inputs": [
        {
          "internalType": "uint256",
          "name": "_meterReading",
          "type": "uint256"
        }
      ],
      "name": "submitMeterReading",
      "outputs": [],
      "stateMutability": "nonpayable",
      "type": "function"
    },
    {
      "inputs": [],
      "name": "approveByUser",
      "outputs": [],
      "stateMutability": "nonpayable",
      "type": "function"
    },
    {
      "inputs": [],
      "name": "approveBySupplier",
      "outputs": [],
      "stateMutability": "nonpayable",
      "type": "function"
    },
    {
      "inputs": [],
      "name": "approveByValidator",
      "outputs": [],
      "stateMutability": "nonpayable",
      "type": "function"
    },
    {
      "inputs": [],
      "name": "isReadingConfirmed",
      "outputs": [
        {
          "internalType": "bool",
          "name": "",
          "type": "bool"
        }
      ],
      "stateMutability": "view",
      "type": "function"
    }
  ],
  "bytecode": "0x608060405234801561000f575f80fd5b50604051610b4c380380610b4c83398181016040528101906100319190610158565b8260025f6101000a81548173ffffffffffffffffffffffffffffffffffffffff021916908373ffffffffffffffffffffffffffffffffffffffff1602179055508160035f6101000a81548173ffffffffffffffffffffffffffffffffffffffff021916908373ffffffffffffffffffffffffffffffffffffffff16021790555080600160026101000a81548173ffffffffffffffffffffffffffffffffffffffff021916908373ffffffffffffffffffffffffffffffffffffffff1602179055505050506101a8565b5f80fd5b5f73ffffffffffffffffffffffffffffffffffffffff82169050919050565b5f610127826100fe565b9050919050565b6101378161011d565b8114610141575f80fd5b50565b5f815190506101528161012e565b92915050565b5f805f6060848603121561016f5761016e6100fa565b5b5f61017c86828701610144565b935050602061018d86828701610144565b925050604061019e86828701610144565b9150509250925092565b610997806101b55f395ff3fe608060405234801561000f575f80fd5b50600436106100a7575f3560e01c80636cd5358c1161006f5780636cd5358c1461013f578063bf05e5c814610149578063c647615314610167578063e337d55f14610185578063e3d082ce1461018f578063ea3c0533146101ad576100a7565b80632e2d6375146100ab5780633a5381b5146100c95780634f8632ba146100e7578063539e28bc146101055780635b814f5f14610123575b5f80fd5b6100b36101b7565b6040516100c09190610628565b60405180910390f35b6100d16101e2565b6040516100de9190610680565b60405180910390f35b6100ef610208565b6040516100fc9190610680565b60405180910390f35b61010d61022d565b60405161011a91906106b1565b60405180910390f35b61013d600480360381019061013891906106f8565b610232565b005b6101476102e3565b005b6101516103dc565b60405161015e9190610628565b60405180910390f35b61016f6103ed565b60405161017c9190610628565b60405180910390f35b61018d6103ff565b005b6101976104f8565b6040516101a49190610680565b60405180910390f35b6101b561051d565b005b5f60015f9054906101000a900460ff1680156101dd575060018054906101000a900460ff165b905090565b600160029054906101000a900473ffffffffffffffffffffffffffffffffffffffff1681565b60025f9054906101000a900473ffffffffffffffffffffffffffffffffffffffff1681565b5f5481565b60025f9054906101000a900473ffffffffffffffffffffffffffffffffffffffff1673ffffffffffffffffffffffffffffffffffffffff163373ffffffffffffffffffffffffffffffffffffffff16146102c1576040517f08c379a00000000000000000000000000000000000000000000000000000000081526004016102b89061077d565b60405180910390fd5b805f819055506001805f6101000a81548160ff02191690831515021790555050565b60025f9054906101000a900473ffffffffffffffffffffffffffffffffffffffff1673ffffffffffffffffffffffffffffffffffffffff163373ffffffffffffffffffffffffffffffffffffffff1614610372576040517f08c379a00000000000000000000000000000000000000000000000000000000081526004016103699061077d565b60405180910390fd5b60015f9054906101000a900460ff16156103c1576040517f08c379a00000000000000000000000000000000000000000000000000000000081526004016103b8906107e5565b60405180910390fd5b6001805f6101000a81548160ff021916908315150217905550565b60018054906101000a900460ff1681565b60015f9054906101000a900460ff1681565b60035f9054906101000a900473ffffffffffffffffffffffffffffffffffffffff1673ffffffffffffffffffffffffffffffffffffffff163373ffffffffffffffffffffffffffffffffffffffff161461048e576040517f08c379a000000000000000000000000000000000000000000000000000000000815260040161048590610873565b60405180910390fd5b60015f9054906101000a900460ff166104dc576040517f08c379a00000000000000000000000000000000000000000000000000000000081526004016104d3906108db565b60405180910390fd5b60018060016101000a81548160ff021916908315150217905550565b60035f9054906101000a900473ffffffffffffffffffffffffffffffffffffffff1681565b600160029054906101000a900473ffffffffffffffffffffffffffffffffffffffff1673ffffffffffffffffffffffffffffffffffffffff163373ffffffffffffffffffffffffffffffffffffffff16146105ad576040517f08c379a00000000000000000000000000000000000000000000000000000000081526004016105a490610943565b60405180910390fd5b60015f9054906101000a900460ff1615806105d3575060018054906101000a900460ff16155b1561060c576001805f6101000a81548160ff02191690831515021790555060018060016101000a81548160ff0219169083151502179055505b565b5f8115159050919050565b6106228161060e565b82525050565b5f60208201905061063b5f830184610619565b92915050565b5f73ffffffffffffffffffffffffffffffffffffffff82169050919050565b5f61066a82610641565b9050919050565b61067a81610660565b82525050565b5f6020820190506106935f830184610671565b92915050565b5f819050919050565b6106ab81610699565b82525050565b5f6020820190506106c45f8301846106a2565b92915050565b5f80fd5b6106d781610699565b81146106e1575f80fd5b50565b5f813590506106f2816106ce565b92915050565b5f6020828403121561070d5761070c6106ca565b5b5f61071a848285016106e4565b91505092915050565b5f82825260208201905092915050565b7f43616c6c6572206973206e6f74207468652075736572000000000000000000005f82015250565b5f610767601683610723565b915061077282610733565b602082019050919050565b5f6020820190508181035f8301526107948161075b565b9050919050565b7f416c726561647920617070726f766564206279207573657200000000000000005f82015250565b5f6107cf601883610723565b91506107da8261079b565b602082019050919050565b5f6020820190508181035f8301526107fc816107c3565b9050919050565b7f43616c6c6572206973206e6f742074686520656e6572677920737570706c69655f8201527f7200000000000000000000000000000000000000000000000000000000000000602082015250565b5f61085d602183610723565b915061086882610803565b604082019050919050565b5f6020820190508181035f83015261088a81610851565b9050919050565b7f5573657220686173206e6f7420617070726f76656420796574000000000000005f82015250565b5f6108c5601983610723565b91506108d082610891565b602082019050919050565b5f6020820190508181035f8301526108f2816108b9565b9050919050565b7f43616c6c6572206973206e6f74207468652076616c696461746f7200000000005f82015250565b5f61092d601b83610723565b9150610938826108f9565b602082019050919050565b5f6020820190508181035f83015261095a81610921565b905091905056fea26469706673582212209d5d350a62054e59d5be9cf08db569607a564e0364bd2269314c1181c3a33ac764736f6c63430008150033",
  "immutableReferences": {},
  "source": "// SPDX-License-Identifier: MIT\npragma solidity ^0.8.0;\n\ncontract EnergyMetering {\n    // State variables\n    uint public meterReading; // the central value of meter reading\n    bool public userApproved; // tracks if the user approved the reading\n    bool public supplierApproved; // tracks if the supplier approved the reading\n    address public validator; // the third-party validator\n    address public user; // the user\n    address public energySupplier; // the energy supplier\n\n    // Modifiers for role-based functions\n    modifier onlyUser() {\n        require(msg.sender == user, \"Caller is not the user\");\n        _;\n    }\n\n    modifier onlyEnergySupplier() {\n        require(msg.sender == energySupplier, \"Caller is not the energy supplier\");\n        _;\n    }\n\n    modifier onlyValidator() {\n        require(msg.sender == validator, \"Caller is not the validator\");\n        _;\n    }\n\n    // Constructor to set initial roles\n    constructor(address _user, address _energySupplier, address _validator) {\n        user = _user;\n        energySupplier = _energySupplier;\n        validator = _validator;\n    }\n\n    // Function to submit a meter reading\n    function submitMeterReading(uint _meterReading) external onlyUser {\n        meterReading = _meterReading;\n        userApproved = true;\n    }\n\n    // User approves the meter reading\n    function approveByUser() external onlyUser {\n        require(!userApproved, \"Already approved by user\");\n        userApproved = true;\n    }\n\n    // Energy supplier approves the meter reading\n    function approveBySupplier() external onlyEnergySupplier {\n        require(userApproved, \"User has not approved yet\");\n        supplierApproved = true;\n    }\n\n    // Validator approves the meter reading in case of disputes\n    function approveByValidator() external onlyValidator {\n        if (!userApproved || !supplierApproved) {\n            // Validator can approve if either user or supplier hasn't approved\n            userApproved = true;\n            supplierApproved = true;\n        }\n    }\n\n    // Check if the reading is fully approved and can be confirmed on-chain\n    function isReadingConfirmed() external view returns (bool) {\n        return userApproved && supplierApproved;\n    }\n}\n",
  "sourcePath": "/Users/nicoshishkin/Desktop/metertrustproject/metertrust/celo-validation/contracts/MeterTrustValidation.sol",
  "compiler": {
    "name": "solc",
    "version": "0.8.21+commit.d9974bed.Emscripten.clang"
  },
  "schemaVersion": "3.4.16",
  "updatedAt": "2024-03-16T18:59:23.085Z",
  "devdoc": {
    "kind": "dev",
    "methods": {},
    "version": 1
  },
  "userdoc": {
    "kind": "user",
    "methods": {},
    "version": 1
  }
}