{"abi":[{"type":"constructor","inputs":[{"name":"_user","type":"address","internalType":"address"},{"name":"_energySupplier","type":"address","internalType":"address"},{"name":"_validator","type":"address","internalType":"address"}],"stateMutability":"nonpayable"},{"type":"function","name":"approveBySupplier","inputs":[],"outputs":[],"stateMutability":"nonpayable"},{"type":"function","name":"approveByUser","inputs":[],"outputs":[],"stateMutability":"nonpayable"},{"type":"function","name":"approveByValidator","inputs":[],"outputs":[],"stateMutability":"nonpayable"},{"type":"function","name":"energySupplier","inputs":[],"outputs":[{"name":"","type":"address","internalType":"address"}],"stateMutability":"view"},{"type":"function","name":"isReadingConfirmed","inputs":[],"outputs":[{"name":"","type":"bool","internalType":"bool"}],"stateMutability":"view"},{"type":"function","name":"meterReading","inputs":[],"outputs":[{"name":"","type":"uint256","internalType":"uint256"}],"stateMutability":"view"},{"type":"function","name":"submitMeterReading","inputs":[{"name":"_meterReading","type":"uint256","internalType":"uint256"}],"outputs":[],"stateMutability":"nonpayable"},{"type":"function","name":"supplierApproved","inputs":[],"outputs":[{"name":"","type":"bool","internalType":"bool"}],"stateMutability":"view"},{"type":"function","name":"user","inputs":[],"outputs":[{"name":"","type":"address","internalType":"address"}],"stateMutability":"view"},{"type":"function","name":"userApproved","inputs":[],"outputs":[{"name":"","type":"bool","internalType":"bool"}],"stateMutability":"view"},{"type":"function","name":"validator","inputs":[],"outputs":[{"name":"","type":"address","internalType":"address"}],"stateMutability":"view"}],"bytecode":{"object":"0x608060405234801561001057600080fd5b5060405161055b38038061055b83398101604081905261002f9161009f565b600280546001600160a01b039485166001600160a01b0319918216179091556003805493851693909116929092179091556001805491909216620100000262010000600160b01b03199091161790556100e2565b80516001600160a01b038116811461009a57600080fd5b919050565b6000806000606084860312156100b457600080fd5b6100bd84610083565b92506100cb60208501610083565b91506100d960408501610083565b90509250925092565b61046a806100f16000396000f3fe608060405234801561001057600080fd5b50600436106100a95760003560e01c80636cd5358c116100715780636cd5358c1461013b578063bf05e5c814610143578063c647615314610155578063e337d55f14610162578063e3d082ce1461016a578063ea3c05331461017d57600080fd5b80632e2d6375146100ae5780633a5381b5146100cb5780634f8632ba146100fc578063539e28bc1461010f5780635b814f5f14610126575b600080fd5b6100b6610185565b60405190151581526020015b60405180910390f35b6001546100e4906201000090046001600160a01b031681565b6040516001600160a01b0390911681526020016100c2565b6002546100e4906001600160a01b031681565b61011860005481565b6040519081526020016100c2565b61013961013436600461041b565b6101a6565b005b61013961020f565b6001546100b690610100900460ff1681565b6001546100b69060ff1681565b6101396102c3565b6003546100e4906001600160a01b031681565b61013961038a565b60015460009060ff1680156101a15750600154610100900460ff165b905090565b6002546001600160a01b031633146101fe5760405162461bcd60e51b815260206004820152601660248201527521b0b63632b91034b9903737ba103a3432903ab9b2b960511b60448201526064015b60405180910390fd5b6000556001805460ff191681179055565b6002546001600160a01b031633146102625760405162461bcd60e51b815260206004820152601660248201527521b0b63632b91034b9903737ba103a3432903ab9b2b960511b60448201526064016101f5565b60015460ff16156102b55760405162461bcd60e51b815260206004820152601860248201527f416c726561647920617070726f7665642062792075736572000000000000000060448201526064016101f5565b6001805460ff191681179055565b6003546001600160a01b031633146103275760405162461bcd60e51b815260206004820152602160248201527f43616c6c6572206973206e6f742074686520656e6572677920737570706c69656044820152603960f91b60648201526084016101f5565b60015460ff166103795760405162461bcd60e51b815260206004820152601960248201527f5573657220686173206e6f7420617070726f766564207965740000000000000060448201526064016101f5565b6001805461ff001916610100179055565b6001546201000090046001600160a01b031633146103ea5760405162461bcd60e51b815260206004820152601b60248201527f43616c6c6572206973206e6f74207468652076616c696461746f72000000000060448201526064016101f5565b60015460ff1615806104045750600154610100900460ff16155b15610419576001805461ffff19166101011790555b565b60006020828403121561042d57600080fd5b503591905056fea2646970667358221220b49809b975f2025b54f847cfd50e16dfb6841a19addc56455bc6a5694946acb064736f6c63430008180033","linkReferences":{}},"methodIdentifiers":{"approveBySupplier()":"e337d55f","approveByUser()":"6cd5358c","approveByValidator()":"ea3c0533","energySupplier()":"e3d082ce","isReadingConfirmed()":"2e2d6375","meterReading()":"539e28bc","submitMeterReading(uint256)":"5b814f5f","supplierApproved()":"bf05e5c8","user()":"4f8632ba","userApproved()":"c6476153","validator()":"3a5381b5"},"id":20}